:100000000C9434000C941D010C9430010C9451009C
:100010000C9451000C9443010C9451000C94510029
:100020000C9451000C9451000C9451000C9451000C
:100030000C9451000C9451000C94C1000C9451008C
:100040000C9451000C9451000C9451000C945100EC
:100050000C9451000C9453000C9451000C945100DA
:100060000C945D000C94510011241FBECFEFD8E01A
:10007000DEBFCDBF11E0A0E0B1E0E0EAF5E002C0F4
:1000800005900D92AE31B107D9F721E0AEE1B1E0B4
:1000900001C01D92A732B207E1F70E94DE010C9465
:1000A000CE020C9400001F920F920FB60F921124F3
:1000B0000F900FBE0F901F9018951F920F920FB6C2
:1000C0000F9211240F900FBE0F901F9018958091E2
:1000D000BC0087FFFCCF81E008951F93CF93DF938F
:1000E000182FCCEBD0E084EA88830E94670010933D
:1000F000BB0084E888830E94670081E0DF91CF9194
:100100001F9108950C946D0084E98093BC00809148
:10011000BC0084FDFCCF08958093BB0084E88093ED
:10012000BC000E94670081E00895882311F084ECF0
:1001300001C084E88093BC008091BC0087FFFCCFA5
:100140008091BB00089520E030E090E02817390747
:10015000BCF42E9A4FE758E361E0415050406040B4
:10016000E1F700C000002E984FE758E361E04150EE
:1001700050406040E1F700C000002F5F3F4FE6CFE6
:1001800008951F920F920FB60F9211242F938F9301
:100190009F93EF93FF9381E090911F01911180E075
:1001A00080931F01882381F088B1807F836088B9A4
:1001B00085B1886185B985E88A95F1F7000085B138
:1001C000887F826085B92FC080911E018F5F877004
:1001D00080931E0195B1987F982B95B985E88A95F3
:1001E000F1F70000E0911E01F0E0EE5FFE4F80812C
:1001F00025B190E080959095E3E0880F991FEA95EE
:10020000E1F78871277E822B85B9E0911E01F0E02D
:10021000E65FFE4FE08188B1F0E0EE5EFE4F807F4A
:100220009081892B88B9FF91EF919F918F912F91A8
:100230000F900FBE0F901F9018951F920F920FB640
:100240000F9211248F9380912601811103C081E0C8
:10025000809325018F910F900FBE0F901F901895DE
:100260001F920F920FB60F9211248F938091250148
:10027000811103C081E0809326018F910F900FBE02
:100280000F901F9018951F920F920FB60F92112486
:100290008F939F934C9B8BC080910401811102C06E
:1002A00083E001C080E08093040180910701811107
:1002B00002C083E001C080E08093070180912401A7
:1002C0008F5F80932401809124018F7090E00A97C2
:1002D0000CF44CC080912401807F80932401809194
:1002E0002401805F8093240180912401807F90E02D
:1002F00080369105DCF110922401809100018F5F1E
:1003000080930001809100018F7090E00A9774F152
:1003100080910001807F8093000180910001805FC7
:100320008093000180910001807F90E080369105EC
:10033000ECF010920001809101018F5F8093010128
:10034000809101018F7090E00A9784F08091010103
:10035000807F8093010180910101805F8093010182
:1003600080910101883110F01092010180912401E7
:100370008F7080930A018091240182958F70809301
:100380000B01809100018F7080930D01809100011D
:1003900082958F7080930E01809101018F70809300
:1003A00010018091010182958F70809311019F91BE
:1003B0008F910F900FBE0F901F90189585B78F7E6D
:1003C00085BF8FEF84B98FE887B98FE08AB915B8F8
:1003D00080E388B91BB894E09093680010926B009A
:1003E00010926C0080E180936D008AE08093690038
:1003F00083E08DBB82E080936E0084BD25E025BD47
:1004000028E027BD80936E008091B90082608093C0
:10041000B90080EC8093B8009093BC00789485B1CB
:10042000886185B92FEF81EE94E0215080409040A3
:10043000E1F700C0000080ED0E946D0080E00E94A6
:100440008C0081ED0E94820081E00E9495008093E3
:10045000240181E00E9495008093000181E00E94C8
:1004600095008093010181E00E9495008093200116
:1004700081E00E9495008093210181E00E94950017
:100480008093220180E00E949500809323010E94C6
:100490008400809124018F77809324018091000152
:1004A0008F7780930001809101018F738093010108
:1004B00080912001877080932001809121018F73AA
:1004C00080932101809122018F718093220180917C
:1004D00023018093230180ED0E946D0080E00E9443
:1004E0008C00809124010E948C00809100010E9468
:1004F0008C00809101010E948C00809120010E945B
:100500008C00809121010E948C00809122010E9428
:100510008C00809123010E948C000E94840080ED59
:100520000E946D0087E00E948C0080E90E948C0090
:100530000E94840081E00E94A300C6E14F9906C09A
:100540001092240110920001C09301014E9924C021
:1005500080ED0E946D0080E00E948C00809124015B
:100560000E948C00809100010E948C00809101010A
:100570000E948C00809120010E948C0080912101BA
:100580000E948C00809122010E948C0080912301A6
:100590000E948C000E94840089B1D0CFF894FFCFD4
:1005A000070100000300000300000000000000003D
:0E05B0000006090804020A0E060C00010300F2
:00000001FF
