:100000000C9434000C947E020C9488020C945100E1
:100010000C9451000C9492020C9451000C945100D9
:100020000C9451000C9451000C9451000C9451000C
:100030000C9451000C9451000C940F020C9451003C
:100040000C9451000C9451000C9451000C945100EC
:100050000C9451000C946D010C9451000C945100BF
:100060000C9477010C94510011241FBECFEFD8E0FF
:10007000DEBFCDBF11E0A0E0B1E0E4EEF8E002C0E9
:1000800005900D92AE31B107D9F721E0AEE1B1E0B4
:1000900001C01D92A433B207E1F70E94E9030C945A
:1000A00070040C94000089E690E0909333018093F3
:1000B000320185E990E0909331018093300189EB22
:1000C00090E090932F0180932E0180EC8093260185
:1000D00008958FE790E090933301809332018DED86
:1000E00090E0909331018093300181E091E0909312
:1000F0002F0180932E0188E18093260108958FEAD5
:1001000091E0909333018093320185E291E09093E6
:1001100031018093300189E491E090932F01809325
:100120002E0183E080932601089580910101982F8C
:1001300092959F708F702AE0929F800D11248731D5
:1001400010F48F5F01C080E06AE00E94640420E147
:10015000829F900D112490930101809101018F7075
:10016000809310018091010182958F70809311011D
:10017000089580910101982F92959F708F702AE0C9
:10018000929F800D1124882311F0815001C087E1D6
:100190006AE00E94640420E1829F900D11249093F4
:1001A0000101809101018F70809310018091010104
:1001B00082958F7080931101089580910001982F8E
:1001C00092959F708F702AE0929F800D11248B333F
:1001D00010F48F5F01C080E06AE00E94640420E1B7
:1001E000829F900D112490930001809100018F70E7
:1001F00080930D018091000182958F7080930E0194
:10020000089580910001982F92959F708F702AE039
:10021000929F800D1124882311F0815001C08BE33F
:100220006AE00E94640420E1829F900D1124909363
:100230000001809100018F7080930D018091000179
:1002400082958F7080930E01089580912501982FDB
:1002500092959F708F702AE0929F800D11248B33AE
:1002600010F48F5F01C080E06AE00E94640420E126
:10027000829F900D112490932501809125018F700C
:1002800080930A018091250182958F7080930B01E4
:10029000089580912501982F92959F708F702AE084
:1002A000929F800D1124882311F0815001C08BE3AF
:1002B0006AE00E94640420E1829F900D11249093D3
:1002C0002501809125018F7080930A01809125017D
:1002D00082958F7080930B0108951F920F920FB635
:1002E0000F9211240F900FBE0F901F9018951F9220
:1002F0000F920FB60F9211240F900FBE0F901F9008
:1003000018958091BC0087FFFCCF81E008951F9372
:10031000CF93DF93182FCCEBD0E084EA88830E9440
:1003200081011093BB0084E888830E94810181E0F1
:10033000DF91CF911F9108950C94870184E98093F8
:10034000BC008091BC0084FDFCCF08958093BB006D
:1003500084E88093BC000E94810181E0089583E5D8
:1003600090E090933301809332011092310110920A
:10037000300110922F0110922E011092260180ED73
:100380000E94870180E00E94A601809125010E94C1
:10039000A601809100010E94A601809101010E94A6
:1003A000A601809121010E94A601809122010E9454
:1003B000A601809123010E94A601809124010E9440
:1003C000A6010C949E01882311F084EC01C084E8FE
:1003D0008093BC008091BC0087FFFCCF8091BB0064
:1003E000089520E030E090E028173907BCF42E9AF9
:1003F0004FE758E361E0415050406040E1F700C0F2
:1004000000002E984FE758E361E0415050406040B3
:10041000E1F700C000002F5F3F4FE6CF08951F9225
:100420000F920FB60F9211242F933F938F939F93A8
:10043000EF93FF9381E090912001911180E08093F0
:100440002001882341F085B1886185B985B1887F15
:10045000826085B948C020911F012F5F27702093CB
:100460001F0130911E013F5F30931E0180912601D4
:1004700090E0022E02C0959587950A94E2F780FFDE
:1004800002C037FD30C08091270190E0022E02C0EB
:10049000959587950A94E2F780FD25C085B1887F00
:1004A000822B85B9E0911F01F0E0EE5FFE4F808165
:1004B00025B190E08095909533E0880F991F3A958B
:1004C000E1F78871277E822B85B9E0911F01F0E06A
:1004D000E65FFE4FE08188B1F0E0EE5EFE4F807F88
:1004E0009081892B88B9FF91EF919F918F913F91D6
:1004F0002F910F900FBE0F901F9018951F920F9283
:100500000FB60F9211240F900FBE0F901F901895E9
:100510001F920F920FB60F9211240F900FBE0F90E3
:100520001F9018951F920F920FB60F9211248F9360
:100530009F934C9B8BC080910401811102C083E08A
:1005400001C080E08093040180910701811102C005
:1005500083E001C080E080930701809125018F5FD7
:1005600080932501809125018F7090E00A970CF40B
:100570004CC080912501807F8093250180912501C9
:10058000805F8093250180912501807F90E08036F7
:100590009105DCF110922501809100018F5F80931D
:1005A0000001809100018F7090E00A9774F18091B2
:1005B0000001807F8093000180910001805F809323
:1005C000000180910001807F90E080369105ECF081
:1005D00010920001809101018F5F80930101809151
:1005E00001018F7090E00A9784F080910101807F73
:1005F0008093010180910101805F809301018091CE
:100600000101883110F010920101809125018F7055
:1006100080930A018091250182958F7080930B0150
:10062000809100018F7080930D018091000182956F
:100630008F7080930E01809101018F708093100163
:100640008091010182958F70809311019F918F910C
:100650000F900FBE0F901F90189585B78F7E85BFA6
:100660008FEF84B98FE887B98FE08AB915B880E336
:1006700088B91BB894E09093680010926B001092B8
:100680006C0080E180936D008AE08093690083E0D4
:100690008DBBEEE6F0E082E0808384BD25E025BDE1
:1006A00028E027BD8083E9EBF0E0808182608083D1
:1006B00080EC8093B8009093BC0078942FEF81EE8B
:1006C00094E0215080409040E1F700C0000080EDB0
:1006D0000E94870180E00E94A60181ED0E949C019A
:1006E00081E00E94E3018093250181E00E94E30103
:1006F0008093000181E00E94E3018093010181E089
:100700000E94E3018093210181E00E94E301809334
:10071000220181E00E94E3018093230180E00E9496
:10072000E301809324010E949E01809125018F772F
:1007300080932501809100018F7780930001809143
:1007400001018F7380930101809121018770809353
:100750002101809122018F738093220180912301D6
:100760008F7180932301809124018093240180ED77
:100770000E94870180E00E94A601809125010E94CD
:10078000A601809100010E94A601809101010E94B2
:10079000A601809121010E94A601809122010E9460
:1007A000A601809123010E94A601809124010E944C
:1007B000A6010E949E0180ED0E94870187E00E94B1
:1007C000A60180E90E94A6010E949E0181E00C948E
:1007D000F10183E590E09093330180933201109210
:1007E00031011092300110922F0110922E010E94BF
:1007F0002D03C1E04F990CC080912A01811103C0E3
:10080000C0932D0102C010922D01C0932A0104C093
:1008100010922D0110922A014E990CC0809129014D
:10082000811103C0C0932C0102C010922C01C0930F
:10083000290104C01092290110922C014D990CC07D
:1008400080912801811103C0C0932B0102C0109236
:100850002B01C093280104C01092280110922B0193
:1008600080912D01882359F08091320190913301BC
:10087000892B29F0E0913201F091330109958091A3
:100880002C0181110BC08091300190913101892B95
:1008900029F0E0913001F0913101099580912B010F
:1008A00081110BC080912E0190912F01892B29F08D
:1008B000E0912E01F0912F0109958FE39CE90197BA
:1008C000F1F700C0000096CF991B79E004C0991F92
:1008D000961708F0961B881F7A95C9F7809508959A
:0408E000F894FFCFBA
:1008E40007010000030000030000000003000003F0
:0E08F4000000090804020A0E060C00010300B1
:00000001FF
