S00E00006E69786965332E73726563C6
S11300000C943B000C9437010C944A010C94580056
S11300100C9458000C945D010C9458000C945800F6
S11300200C9458000C9458000C9458000C945800EC
S11300300C9458000C9458000C94A9000C9458008B
S11300400C9458000C9458000C9458000C945800CC
S11300500C9458000C9477000C9458000C9458009D
S11300600C9481000C945800DF00E900F300FD00BB
S1130070070111011B0111241FBECFEFD8E0DEBF21
S1130080CDBF11E0A0E0B1E0E8E4F4E002C00590E7
S11300900D92AE31B107D9F721E0AEE1B1E001C074
S11300A01D92A432B207E1F70E946E010C94220261
S11300B00C94000095B1987F982B95B9089598B148
S11300C0E82FF0E0EE5EFE4F907F8081982B98B988
S11300D0089525B190E08095909533E0880F991F9D
S11300E03A95E1F78871277E822B85B908951F928E
S11300F00F920FB60F9211240F900FBE0F901F9006
S113010018951F920F920FB60F9211240F900FBEE5
S11301100F901F90189520E030E090E028173907E1
S1130120BCF42E9A4FE758E361E0415050406040E0
S1130130E1F700C000002E984FE758E361E041501A
S113014050406040E1F700C000002F5F3F4FE6CF12
S113015008951F920F920FB60F9211242F933F937D
S11301604F935F936F937F938F939F93AF93BF93BB
S1130170EF93FF9381E090911F01911180E08093B0
S11301801F01882311F08AE05FC080911E018F5FF8
S1130190877080931E0190E0FC013197E730F105F0
S11301A020F4EC5CFF4F0C941C0280E00E945A0087
S11301B0809102010E94690080910A0145C081E09A
S11301C00E945A00809103010E94690080910B01F2
S11301D03BC082E00E945A00809104010E946900A1
S11301E080910C0131C083E00E945A008091050186
S11301F00E94690080910D0127C084E00E945A008A
S1130200809106010E94690080910E011DC085E065
S11302100E945A00809107010E94690080910F0199
S113022013C086E00E945A00809108010E94690070
S11302308091100109C087E00E945A008091090151
S11302400E946900809111010E945F00FF91EF916B
S1130250BF91AF919F918F917F916F915F914F91DA
S11302603F912F910F900FBE0F901F9018951F92E2
S11302700F920FB60F9211248F9380912201811156
S113028003C081E0809321018F910F900FBE0F90E6
S11302901F9018951F920F920FB60F9211248F93EF
S11302A080912101811103C081E0809322018F910B
S11302B00F900FBE0F901F9018951F920F920FB6BC
S11302C00F9211248F93489B03C081E080932301F4
S11302D08F910F900FBE0F901F90189585B78F7E4A
S11302E085BF8FEF84B98FE887B98FE08AB915B8D5
S11302F080E388B91BB882E080936E0084BD95E0EA
S113030095BD98E097BD80936E00789481E00E943B
S11303108B002AE03FEF81EE94E031508040904022
S1130320E1F700C000003FEF81EE94E031508040DF
S11303309040E1F700C000003FEF81EE94E03150BF
S113034080409040E1F700C000003FEF81EE94E070
S1130350315080409040E1F700C000003FEF81EE53
S113036094E0315080409040E1F700C0000080915B
S11303700401811102C083E001C080E08093040184
S113038080910701811102C083E001C080E0809365
S11303900701809120018F5F8093200180912001CB
S11303A08C33C0F010922001809100018F5F809304
S11303B00001809100018C3368F01092000180915B
S11303C001018F5F8093010180910101883110F058
S11303D01092010180912001622F0E9410029093DB
S11303E00A01809120010E94100280930B018091E8
S11303F000010E94100290930D01809100010E945F
S1130400100280930E01809101010E9410029093CA
S11304101001809101010E941002809311017ACF92
S1130420991B79E004C0991F961708F0961B881F42
S11304307A95C9F780950895EE0FFF1F0590F49102
S10B0440E02D0994F894FFCFAC
S11304480701000003000003000000000000000092
S11104580006090804020A0E060C0001030047
S9030000FC
