S00E00006E69786965332E73726563C6
S11300000C943C000C9409020C941C020C945900AE
S11300100C9459000C942F020C9459000C94590020
S11300200C9459000C9459000C9459000C945900E8
S11300300C9459000C9459000C947F010C945900B1
S11300400C9459000C9459000C9459000C945900C8
S11300500C9459000C946B000C9459000C945900A6
S11300600C9475000C945900A901B301BD01C7019A
S1130070D101DB01E501EF0111241FBECFEFD8E070
S1130080DEBFCDBF11E0A0E0B1E0ECE4F7E002C0D8
S113009005900D92AC30B107D9F721E0ACE0B1E0A6
S11300A001C01D92A232B207E1F70E9440020C94F3
S11300B0A4030C94000095B1987F892B85B9089509
S11300C098B1E82FF0E0E050FF4F892F807F9081B6
S11300D0892B88B908951F920F920FB60F9211249D
S11300E00F900FBE0F901F9018951F920F920FB68E
S11300F00F9211240F900FBE0F901F901895ECEBE8
S1130100F0E080818823ECF781E008951F93CF937A
S1130110DF93182FCCEBD0E084EA88830E947F0021
S11301201093BB0084E888830E947F0081E0DF9104
S1130130CF911F9108950E948600089584E98093C9
S1130140BC00ECEBF0E0808184FDFDCF089580934A
S1130150BB0084E88093BC000E947F0081E0089586
S1130160882321F084EC8093BC0003C084E880934E
S1130170BC00ECEBF0E080818823ECF78091BB00BD
S11301800895882311F05C9A08955C98089590E08E
S113019018161906DCF420E030E02E9A4FE758E3F5
S11301A061E0415050406040E1F700C000002E98EB
S11301B04FE758E361E0415050406040E1F700C030
S11301C000002F5F3F4F281739073CF3089520E0C4
S11301D030E060E870E090E00CC02430310549F470
S11301E04FEF51EEE4E041505040E040E1F700C0F1
S11301F00000AB01022E02C0559547950A94E2F720
S113020048235923452BA9F02E9A4FEF51EEE4E0F1
S113021041505040E040E1F700C000002E984FEFFD
S113022050E7E2E041505040E040E1F700C00000F8
S113023014C02E9A4FE758E3E1E041505040E040AB
S1130240E1F700C000002E984FEF50E7E2E0415084
S11302505040E040E1F700C000002F5F3F4F2830DE
S1130260310509F0BACF2FEF41EE54E02150404060
S11302705040E1F700C000000895CF93C82F8AEBE7
S11302800E9486008C2F0E94A7008BEB0E949B008B
S113029080E00E94B000C82F0E949E008C2FCF9156
S11302A00895CF93DF93D82FC62F8AEB0E94860040
S11302B08D2F0E94A7008C2F0E94A7000E949E00F1
S11302C081E0DF91CF91089580E20E943D01682F83
S11302D06F7780E20E9451016AE780E10E94510138
S11302E064E080E20E94510164E880E20E945101CE
S11302F08FE19EE40197F1F700C0000008951F927A
S11303000F920FB60F9211242F933F934F935F9345
S11303106F937F938F939F93AF93BF93EF93FF93C9
S113032081E090911501911180E08093150188235B
S113033021F08AE00E9460005BC0809114018F5F0D
S113034087708093140190E0FC01EC5CFF4F0C94E7
S11303509E0380E00E945B00809120019091210126
S11303600E94600045C081E00E945B0080912001F2
S1130370909121010E9460003BC082E00E945B00DA
S113038080912001909121010E94600031C083E09E
S11303900E945B0080912001909121010E946000E5
S11303A027C084E00E945B0080912001909121018C
S11303B00E9460001DC085E00E945B0080912001C6
S11303C0909121010E94600013C086E00E945B00AE
S11303D080912001909121010E94600009C087E072
S11303E00E945B0080912001909121010E94600095
S11303F0FF91EF91BF91AF919F918F917F916F91F9
S11304005F914F913F912F910F900FBE0F901F90CE
S113041018951F920F920FB60F9211248F9380910B
S11304201E01811103C081E080931D018F910F9003
S11304300FBE0F901F9018951F920F920FB60F9238
S113044011248F9380911D01811103C081E0809359
S11304501E018F910F900FBE0F901F9018951F9241
S11304600F920FB60F9211248F93489B03C081E023
S113047080931F018F910F900FBE0F901F901895BE
S113048085B78F7E85BF8FEF84B98FE887B982E106
S11304908AB915B880E388B98FEA8BB910926B00DA
S11304A010926C0081E080936D0094E0909368005A
S11304B08AE08093690083E08DBBEEE6F0E082E0A1
S11304C0808384BD25E025BD28E027BD8083E9EB3A
S11304D0F0E080818260808380EC8093B800909308
S11304E0BC0010927E0078942FEF81EE94E02150AE
S11304F080409040E1F700C000000E9464018AE25D
S11305000E943D0189E20E943D0188E20E943D0172
S11305108CE20E943D018BE20E943D0188EB0E9427
S113052086008FE99FE00197F1F700C000000E9468
S11305309E0088EB0E94860083E00E94A70080E072
S11305400E94A70084E00E94A7000E949E008FE6FC
S113055097E10197F1F700C0000089EB0E94860043
S113056087EC90E00197F1F700C0000081E00E9461
S1130570B00080930C0181E00E94B00080930D01D3
S113058081E00E94B00080930E0181E00E94B000DF
S113059080930F0181E00E94B0008093100181E0FC
S11305A00E94B0008093110181E00E94B00080930A
S11305B0120180E00E94B000809313010E949E000B
S11305C080ED0E94860087E00E94A70080E90E94D7
S11305D0A7000E949E0081E00E94C700C9E0D0E00D
S11305E04F995BC0109221011092200180ED0E946E
S11305F0860080E00E94A70081ED0E949B0081E0BC
S11306000E94B00080931A0181E00E94B0008093A0
S11306101B0181E00E94B00080931C0181E00E94D4
S1130620B0008093160181E00E94B000809317010E
S113063081E00E94B0008093180180E00E94B00025
S1130640809319010E949E0080911A018F778093F4
S11306501A0180911B018F7780931B0180911C01EB
S11306608F7380931C01809116018770809316010B
S1130670809117018F7380931701809118018F71F6
S113068080931801809119018093190180911A01B6
S11306900E94E70081E00E94C10080911E0188232E
S11306A0E9F080912001909121010196909321011C
S11306B08093200180912001909121010A9724F0D8
S11306C010922101109220019FEF21EE84E09150BD
S11306D020408040E1F700C0000020C080911D014F
S11306E08823E1F08091200190912101019790935A
S11306F0210180932001809120019091210199236F
S113070024F4D0932101C09320019FEF21EE84E0D3
S1130710915020408040E1F700C0000010921E017B
S113072010921D0180911F01811110921F018FE30E
S11307309CE90197F1F700C0000052CFEE0FFF1FB4
S10F07400590F491E02D0994F894FFCF8B
S10F074C030406090801050002070A0066
S9030000FC
