:100000000C943C000C9413010C943F010C94590087
:100010000C9459000C9452010C9459000C94590002
:100020000C9459000C9459000C9459000C945900EC
:100030000C9459000C9459000C9499000C9459009C
:100040000C9459000C9459000C9459000C945900CC
:100050000C9459000C9459000C9459000C945900BC
:100060000C9459000C945900C300CB00D300DB0062
:10007000E300EB00F300FB0011241FBECFEFD8E03C
:10008000DEBFCDBF11E0A0E0B1E0ECEDF3E002C0D7
:1000900005900D92AC30B107D9F721E0ACE0B1E0AA
:1000A00001C01D92A231B207E1F70E94E1010C9458
:1000B000EC010C940000882311F05C9A08955C9880
:1000C000089518161906DCF420E030E02E9A4FEF60
:1000D00051EE64E0415050406040E1F700C0000044
:1000E0002E984FEF51EE64E0415050406040E1F7F0
:1000F00000C000002F5F3F4F2817390739F78FEFF7
:1001000091EE24E0815090402040E1F700C00000D3
:10011000089595B19770892B85B9089598B1E82F06
:10012000F0E0E050FF4F892F8F709081892B88B9C4
:1001300008951F920F920FB60F9211242F933F93A1
:100140004F935F936F937F938F939F93AF93BF93DF
:10015000EF93FF9381E090910D01911180E08093E6
:100160000D01882321F08AE00E948E004BC080910F
:100170000C018F5F877080930C0190E0FC01EC5CB8
:10018000FF4F0C94E60180E00E94890080911001ED
:100190000E948E0037C081E00E948900809110018A
:1001A0000E948E002FC082E00E9489008091100181
:1001B0000E948E0027C083E00E9489008091100178
:1001C0000E948E001FC084E00E948900809110016F
:1001D0000E948E0017C085E00E9489008091100166
:1001E0000E948E000FC086E00E948900809110015D
:1001F0000E948E0007C087E00E9489008091100154
:100200000E948E00FF91EF91BF91AF919F918F91CE
:100210007F916F915F914F913F912F910F900FBE02
:100220000F901F9018951F920F920FB60F921124E6
:100230002F933F934F935F936F937F938F939F93EE
:10024000AF93BF93EF93FF9381E00E945B00809197
:100250000F01811103C081E080930E01FF91EF91A6
:10026000BF91AF919F918F917F916F915F914F91CE
:100270003F912F910F900FBE0F901F9018951F92D6
:100280000F920FB60F9211248F9380910E0181115E
:1002900003C081E080930F018F910F900FBE0F90EC
:1002A0001F9018951F920F920FB60F9211240F9066
:1002B0000FBE0F901F90189585B78F7E85BF8FEF6B
:1002C00084B98FE887B981E18AB915B880E388B924
:1002D0008FEA8BB910926B0010926C0080E88093CB
:1002E0006D0084E0809368008AE08093690083E079
:1002F0008DBBEEE6F0E082E0808384BD95E095BDA5
:1003000098E097BD8083789408954F9908C0109223
:1003100011011092100181E090E00E946100809133
:100320000F018823D9F0809110019091110101965D
:100330008A3091052CF4909311018093100104C030
:1003400010921101109210012FEF81EE94E02150D4
:1003500080409040E1F700C000001FC080910E0176
:100360008823D9F080911001909111010197992370
:100370002CF0909311018093100106C089E090E069
:1003800090931101809310012FEF81EE94E02150A2
:1003900080409040E1F700C0000010920F011092E1
:1003A0000E014E9B04C081E00E945B0003C080E010
:1003B0000E945B008FE39CE90197F1F700C0000009
:1003C00008950E945C010E948501FDCFEE0FFF1F82
:0C03D0000590F491E02D0994F894FFCF03
:0C03DC00030406090801050002070A00DE
:00000001FF
